:10039400C0F9A4B0999282F88090FF407924301972
:0503A4001202780010B8
:1003A90008090A0A0A0A0A0A0A0A011100C100010F
:0203B90008003A
:0403BC007DFF7C0045
:0D03C000E5A0541F4FF5A08D8053A01F2213
:10037B0075090A750A0A750B0A750C0A750D0A754B
:09038B000E0A750F0A75100A2212
:0F03DE007F801203BC7DAF7FA01203C002037BA0
:1002D6007FE01203BC74017E00A811088005C333B9
:1002E600CE33CED8F9FDAC067FC01203C0AF1105E0
:1002F6001174092FF8E690039493FD7C007FE012B9
:0D03060003C0E511C394084003E4F5112283
:10000300438E4053890F758B40758DA2C28FD28E5C
:05001300D2ABD2AF22C8
:1003CD00538E7F5389F0758AF4758CFFC28DC28C64
:0103DD0022FD
:10027D007E0AC290758AF4758CFFD28CAD061EED88
:10028D00600C308DFDA290B39290C28D80EEC28C29
:10029D00E4F58AF58CD28C309103308DFAC28C3016
:1002AD008D06C28D7FFF8020AF8CEFFEAD8A7C0066
:1002BD00E42DFDEC3EFCE41201297B967A43798B0B
:0802CD00783C12001E120162D0
:0102D5002206
:10034C001203DE1200031203CD3000FDC2001202B4
:10035C007DEF75F06484F50EEF75F06484E5F0754F
:0F036C00F00A84F50FEF75F00A8485F01080DA3F
:03001B00020313CA
:10031300C0E0C083C082C0D075D000C000C004C09C
:0503230005C006C00743
:100328001202D60508E508C3940A4005750800D2EC
:0103380000C4
:10033900D007D006D005D004D000D0D0D082D08349
:03034900D0E032CF
:10001E00EC4D6011E8497017ED33EC3304600DE4DC
:10002E00FCFFFEFD22E933E8330470F80201CE1224
:10003E00019958046009E4CC248150062850090225
:10004E0001D82840030201D5C0E0EB4A7044B980C4
:10005E0006D0E0FB0201C4EF4E701CBD8008EBFF22
:10006E00EAFEE9FD80EBE98DF0A4FEE5F002010762
:10007E00E9CDF9EAFEEBFFEF89F0A4FCE5F0CE89BD
:10008E00F0A42EFFE435F0CD89F0A42DFEE435F07A
:10009E008067EF4E7005BD80D780C3EF8BF0A4ACA8
:1000AE00F0EE8BF0A42CFCE435F0F8EF8AF0A42CE3
:1000BE00E5F038FCE433CB8DF0A42CFCE5F03BF8F6
:1000CE00EE8AF0A42CFCE5F038F8E433CF89F0A4E6
:1000DE002CFCE5F038CF3400CE89F0A42FFFE5F0EC
:1000EE003EFEE433C98DF0A42EFEE5F039CD8AF044
:1000FE00A42FFFE5F03EFEE43DFD33D0E0FB5007BC
:10010E000BBB000F0201D8EC2CFCEF33FFEE33FEDD
:06011E00ED33FD0201B00B
:1001240075F020800E75F010800575F0087D007E56
:10013400007F003392D530D5031201E3EC33401035
:10014400EF33FFEE33FEED33FDEC33FCD5F0ED225F
:0E015400E5F0247EA2D513CC92E7CDCEFF229B
:10016200EDD2E7CD33EC3392D524814006E4FFFE95
:10017200FDFC22FCE4CFCECDCC24E0501174FF80F4
:10018200EDC3CC13CCCD13CDCE13CECF13CF047091
:07019200F030D5DE0201E3AD
:10019900E9D2E7C933E833F892D5EDD2E7CD33ECAC
:0701A90033FC5002B2D52225
:1001B000EC30E7100FBF000C0EBE00080DBD0004B0
:1001C0000BEB6014A2D5EB13FCED92E7FD2274FF5C
:1001D000FCFDFEFF22E480F8A2D574FF13FC7D80B5
:0301E000E480EFC9
:030000000201F109
:0C01F100787FE4F6D8FD7581200202380A
:0E01E300C3E49FFFE49EFEE49DFDE49CFC222D
:1001FD0002034CE493A3F8E493A34003F68001F2C9
:10020D0008DFF48029E493A3F85407240CC8C33302
:10021D00C4540F4420C8834004F456800146F6DFD1
:10022D00E4800B01020408102040809003A9E47EB5
:10023D00019360BCA3FF543F30E509541FFEE493C6
:10024D00A360010ECF54C025E060A840B8E493A38D
:10025D00FAE493A3F8E493A3C8C582C8CAC583CAB8
:10026D00F0A3C8C582C8CAC583CADFE9DEE780BE70
:0103BB000041
:00000001FF
