:03000000020545B1
:0C054500787FE4F6D8FD75812002058C5B
:10078000C0F9A4B0999282F88090FF407924301982
:08079000120278001089C1BFBC
:10069A00080B0A0A0A0A0A0A0A0A011300C103C154
:1006AA0002C101C104C1000116000115FF011400B5
:0906BA00010800010900010A0019
:10079800438E805389F0758A40758CA2C28DD28CA5
:0507A800D2A9D2AF222E
:0D07BE00E5A0541F4FF5A08D8053A01F2211
:10076700750B0A750C0A750D0A750E0A750F0A7551
:09077700100A75110A75120A221C
:1007AD007DFF7F801207BE7DAF7FA01207BE0207BF
:0107BD0067D4
:100662007DFF7FE01207BEAF137401A80708800266
:10067200C333D8FCFD7FC01207BEAF130513740B42
:100682002FF8E690078093FD7FE01207BEE513C3C3
:0806920094084003E4F5132273
:1004810075B0F0D2C2D2C4A2C292B6A2C492B7E5EC
:10049100B054F0F51964F0600405168003E4F51614
:1004A100E51664037077F516751401E5192450609B
:1004B1001124E0601224F0601324707012E4F51A24
:1004C100800D751A018008751A028003751A03756B
:1004D100B00FC2C2C2C4A2C292B6A2C492B7E5B062
:1004E100540FF51924F9602924FC601B24FE600DCA
:1004F10014702AE51A25E025E02407801CE51A2559
:10050100E025E024068012E51A25E025E024058097
:1005110008E51A25E025E02404F515FF2275B00F42
:10052100C2C2C2C4A2C292B6A2C492B7E5B0540F6D
:10053100F519E514B4010AE519B40F05E4F514C27F
:03054100007FFF39
:010544002294
:1002AF008F1C8E1B8D1A8C19EC1201147B007A4057
:1002BF00791C784412000E1201528F1C8E1B8D1A5E
:1002CF008C197B407A42790F780012061E8F0C7BB7
:1002DF00407A42790F7800AF1CAE1BAD1AAC1912E1
:1002EF00061EAC00AD01AE02AF037BA07A8679018A
:1002FF00780012061E8F0D7BA07A8679017800AFE9
:10030F001CAE1BAD1AAC1912061EAC00AD01AE022D
:10031F00AF03E47B107A27F9F812061EEF240BF5D2
:10032F000EE47B107A27F9F8AF1CAE1BAD1AAC198F
:10033F0012061EAC00AD01AE02AF03E47BE87A03F8
:10034F00F9F812061E8F0FE47BE87A03F9F8AF1C59
:10035F00AE1BAD1AAC1912061EAC00AD01AE02AF4A
:10036F0003E47B64FAF9F812061E8F10E47B64FA3B
:10037F00F9F8AF1CAE1BAD1AAC1912061EAC00ADCE
:10038F0001AE02AF03E47B0AFAF9F812061E8F11D1
:10039F00E47B0AFAF9F8AF1CAE1BAD1AAC191206C2
:0603AF001EAF038F1222B5
:1003B50075180A1207981207AD30021130000EC2E7
:1003C500021206C4EE3395E0FDFC1202AF200003D5
:1003D5001207673003E3C2031204818F17E517F490
:1003E50060D7E51724FCB4100050CE9003FE75F0DD
:1003F50003A4C58325F0C5837302043A02043602BB
:10040500043202042E02044A020446020442020493
:100415003E02045902045402044E0203BE0204774C
:1004250002046D020467020461E4FD80317DFF80F2
:100435002D7DAA80297D5580257D0F80217DF08029
:100445001D7D0F80197DF080157DAF7FA0801DD2A9
:10045500000203BEC2001207670203BE7DFB7F8058
:10046500800A7DF77F8080047DEF7F801207BE02C2
:0C04750003BE7DDF7F801207BE0203BEC5
:03000B000205D11A
:1005D100C0E0C083C082C0D075D000C000C005C0DB
:0105E1000712
:1005E20012066205080509050AE508C3940A4005D2
:1005F200750800D203E509C394FA4005750900D2D3
:0D06020001E50AC394194005750A00D202F3
:0F060F00D007D005D000D0D0D082D083D0E03239
:040733007F057E00C0
:10073700EF1FAA0670011E4A600BE4FDEDD3940C6F
:0507470050EE0D80F7EB
:01074C00228A
:02071500A90732
:10071700E4FBC294E9139294120733D294E9C3130A
:0C072700F90BBB08ED7F057E00020737D0
:10074D00E4FBC294ECC313FCD294309403430480B5
:09075D001207330BBB08EBAF04DB
:010766002270
:1006EE00C205D2947F0C7E00120737C2947F507ED3
:1006FE0000120737D2947F0A7E00120737A2949217
:06070E0005120733A205ED
:0107140022C2
:1006C400E4FFFE1206EE7FCC1207157F44120715D5
:1006D4001206EE7FCC1207157FBE12071512074DC6
:0906E400A90712074DEFFEE9FF22
:0106ED0022EA
:10000E00EC4D6011E8497017ED33EC3304600DE4EC
:10001E00FCFFFEFD22E933E8330470F80201BE1244
:10002E00018958046009E4CC248150062850090245
:10003E0001C82840030201C5C0E0EB4A7044B980F4
:10004E0006D0E0FB0201B4EF4E701CBD8008EBFF42
:10005E00EAFEE9FD80EBE98DF0A4FEE5F00200F783
:10006E00E9CDF9EAFEEBFFEF89F0A4FCE5F0CE89CD
:10007E00F0A42EFFE435F0CD89F0A42DFEE435F08A
:10008E008067EF4E7005BD80D780C3EF8BF0A4ACB8
:10009E00F0EE8BF0A42CFCE435F0F8EF8AF0A42CF3
:1000AE00E5F038FCE433CB8DF0A42CFCE5F03BF806
:1000BE00EE8AF0A42CFCE5F038F8E433CF89F0A4F6
:1000CE002CFCE5F038CF3400CE89F0A42FFFE5F0FC
:1000DE003EFEE433C98DF0A42EFEE5F039CD8AF054
:1000EE00A42FFFE5F03EFEE43DFD33D0E0FB5007CC
:1000FE000BBB000F0201C8EC2CFCEF33FFEE33FEFE
:06010E00ED33FD0201A02B
:1001140075F020800E75F010800575F0087D007E66
:10012400007F003392D530D5031201D3EC33401055
:10013400EF33FFEE33FEED33FDEC33FCD5F0ED226F
:0E014400E5F0247EA2D513CC92E7CDCEFF22AB
:10015200EDD2E7CD33EC3392D524814006E4FFFEA5
:10016200FDFC22FCE4CFCECDCC24E0501174FF8004
:10017200EDC3CC13CCCD13CDCE13CECF13CF0470A1
:07018200F030D5DE0201D3CD
:10018900E9D2E7C933E833F892D5EDD2E7CD33ECBC
:0701990033FC5002B2D52235
:1001A000EC30E7100FBF000C0EBE00080DBD0004C0
:1001B0000BEB6014A2D5EB13FCED92E7FD2274FF6C
:1001C000FCFDFEFF22E480F8A2D574FF13FC7D80C5
:0301D000E480EFD9
:100551000203B5E493A3F8E493A34003F68001F208
:1005610008DFF48029E493A3F85407240CC8C333AB
:10057100C4540F4420C8834004F456800146F6DF7A
:10058100E4800B010204081020408090069AE47E6A
:10059100019360BCA3FF543F30E509541FFEE4936F
:1005A100A360010ECF54C025E060A840B8E493A336
:1005B100FAE493A3F8E493A3C8C582C8CAC583CA61
:1005C100F0A3C8C582C8CAC583CADFE9DEE780BE19
:0106C3000036
:10061E00C2D5E830E70FB2D5E4C39BFBE49AFAE407
:10062E0099F9E498F8EC30E717B2D5120654120295
:10063E001DE4C39BFBE49AFAE499F9E498F880036D
:10064E0012021D30D50DE4C39FFFE49EFEE49DFD16
:04065E00E49CFC22FA
:0E01D300C3E49FFFE49EFEE49DFDE49CFC223D
:1001E10075F008758200EF2FFFEE33FECD33CDCCD5
:1001F10033CCC58233C5829BED9AEC99E582984058
:100201000CF582EE9BFEED9AFDEC99FC0FD5F0D634
:10021100E4CEFBE4CDFAE4CCF9A88222B800C1B95E
:100221000059BA002DEC8BF084CFCECDFCE5F0CB9C
:10023100F97818EF2FFFEE33FEED33FDEC33FCEBD5
:1002410033FB10D703994004EB99FB0FD8E5E4F990
:10025100FA227818EF2FFFEE33FEED33FDEC33FC7D
:10026100C933C910D7059BE99A4007EC9BFCE99A71
:10027100F90FD8E0E4C9FAE4CCFB2275F010EF2FB6
:10028100FFEE33FEED33FDCC33CCC833C810D707B6
:100291009BEC9AE899400AED9BFDEC9AFCE899F8F1
:0E02A1000FD5F0DAE4CDFBE4CCFAE4C8F92284
:00000001FF
