:10028100C0F9A4B0999282F88090FF407924301986
:050291001202780010CC
:10022500080A0A0A0A0A0A0A0A0A01120001130040
:10023500C1000116000115FF0114000108000109A4
:0102450000B8
:0D029600E5A0541F4FF5A08D8053A01F223E
:1001B7007DFF7C007FE012029674017E00A8120882
:1001C7008005C333CE33CED8F9FDAC067FC012020B
:1001D70096AF120512740A2FF8E690028193FD7C00
:1001E700007FE0120296E512C394084003E4F5127B
:0101F70022E5
:10000E00438E805389F0758A40758CA2C28DD28C36
:05001E00D2A9D2AF22BF
:1000260075B0F0D2C2D2C4A2C292B6A2C492B7E54B
:10003600B054F0F51764F0600405168003E4F51675
:10004600E51664037073F516751401E51724506000
:100056001124E0601224F0601324707012E4F51885
:10006600800D7518018008751802800375180375D0
:10007600B00FC2C2C2C4E5B0540FF51724F9602F01
:1000860024FC601F24FE600F14702EE51825E02561
:10009600E02407F5158022E51825E025E02406F57D
:1000A600158016E51825E025E02405F515800AE5F6
:1000B6001825E025E02404F51575B00FC2C2C2C4A8
:1000C600E5B0540FF517E514600BE517B40F06E419
:0700D600F514AF15227FFFB6
:0100DD002200
:1002470053877F759850438E40538EFE53890F43D3
:100257008920758BD9758DD9C2ABD28ED2ACD2AF6E
:010267002274
:1001F80012000E1202473000FDC200120026AE07A0
:10020800EEF460F2EE24FC600C24FD70E974052520
:0D02180013F51380E174FB2513F51380D955
:030023000202686E
:09026800C0E0C0D075D000C00751
:09027100309806C298AF998F1174
:07027A00D007D0D0D0E03224
:03000B0002016A85
:10016A00C0E0C083C082C0D075D000C000C004C047
:05017A0005C006C007EE
:10017F001201B705080509E508C3940A400575087B
:10018F0000D200E509C39419400B75090085139936
:05019F003099FDC2993A
:1001A400D007D006D005D004D000D0D0D082D083E0
:0301B400D0E03266
:030000000200DE1D
:0C00DE00787FE4F6D8FD75812002012532
:1000EA000201F8E493A3F8E493A34003F68001F233
:1000FA0008DFF48029E493A3F85407240CC8C33317
:10010A00C4540F4420C8834004F456800146F6DFE5
:10011A00E4800B0102040810204080900225E47E4E
:10012A00019360BCA3FF543F30E509541FFEE493DA
:10013A00A360010ECF54C025E060A840B8E493A3A1
:10014A00FAE493A3F8E493A3C8C582C8CAC583CACC
:10015A00F0A3C8C582C8CAC583CADFE9DEE780BE84
:0102460000B7
:00000001FF
