:0300000002072EC6
:0C072E00787FE4F6D8FD75816202077543
:10098300C0F9A4B0999282F88090FF40792430197D
:10099300120278001089C1BF00010301040502009F
:0809A300010101010101010144
:1009D000080A0A0A0A0A0A0A0A0A011200C101C11F
:1009E000000116000115FF01140001133201080077
:0309F000010900FA
:100A7300438E805389F0758A40758CA2C28DD28CC7
:050A8300D2A9D2AF2250
:0D0AA800E5A0541F4FF5A08D8053A01F2224
:100A1100750A0A750B0A750C0A750D0A750E0A75A9
:090A21000F0A75100A75110A2272
:100A88007DFF7F80120AA87DAF7FA0120AA8020A04
:010A9800114C
:10091F007DFF7FE0120AA8AF127401A807088002BA
:10092F00C333D8FCFD7FC0120AA8AF120512740A98
:10093F002FF8E690098393FD7FE0120AA8E512C312
:08094F0094084003E4F51222B4
:1006650075B0F0D2C2D2C4A2C292B6A2C492B7E506
:10067500B054F0F54C64F0600405168003E4F516FB
:10068500E5166403707BF516751401E54C2450607E
:100695001124E0601224F0601324707012E4F54D0B
:1006A500800D754D018008754D028003754D0375EC
:1006B500B00FC2C2C2C4A2C292B6A2C492B7E5B07C
:1006C500540FF54C24F9602F24FC601F24FE600FA5
:1006D50014702EE54D25E025E02407F5158022E56B
:1006E5004D25E025E02406F5158016E54D25E02588
:1006F500E02405F515800AE54D25E025E02404F5FF
:100705001575B00FC2C2C2C4A2C292B6A2C492B736
:10071500E5B0540FF54CE514B4010BE54CB40F06E8
:08072500E4F514AF15227FFF7B
:01072D0022A9
:080A2A008F5D8E5C8D5B8C5A20
:100A32007B007A00795A855E827583001202A4FFD8
:010A42002291
:0807BA008F1A8E198D188C179F
:1007C200E4F51EF51DF51CF51BF51FAF1AAE19ADAC
:1007D20018AC17851F5E120A2A7E00E51F75F00805
:1007E200A4FDEFA805088005C333CE33CED8F9FFA8
:1007F200EE3395E0FDFCE51E4FF51EE51D4EF51DA1
:10080200E51C4DF51CE51B4CF51B051FE51FC394AC
:0B0812000440B8AF1EAE1DAD1CAC1BB7
:01081D0022B8
:1009AB0012028BF55F9000011202A4F56090000219
:1009BB001202A4F5619000031202A4F562FFAE616E
:0409CB00AD60AC5F10
:0109CF002205
:0808E6008F558E548D538C5286
:1008EE00E48F5678081203CFE48F57AF55AE54AD50
:1008FE0053AC5278101203CFE48F58AF55AE54ADAF
:10090E0053AC5278181203CF8F59AE58AD57AC5620
:01091E0022B6
:10040800E4F52278237C00FD7BFF7A09799BFE7F47
:1004180008120265752B04782C7C007D007BFF7A1E
:100428000979A37E007F0812026575371F75368526
:10043800753545753441E4F547F546F545F54412FB
:100448000A88120A737B007A0079237550087F01A5
:100458001208AC200103020532C201120665EFF44E
:100468007003020532EF1203E204D60404A905045E
:10047800A40604930704FB0A04FF0B052B100512BE
:1004880011050A12050513000005327B007A007970
:100498002C7550087F0112081E0205327DFF0205E7
:1004A8002DE4FFFE7D7A7C44AB37AA36A935A83403
:1004B80012000E1201148F3F8E3E8D3D8C3C7B0046
:1004C8007A00793C755004E4FF1208AC805C7B002C
:1004D8007A007940755004E4FF12081EE542FE7C5C
:1004E80000E42543FFEC3EFEE48F4B8E4AF549F5C8
:1004F8004880377DAF80027DEF7FA0802A7522017A
:100508008028E4F522120A118020E51375F064842E
:10051800E5F075F00A84F510E51375F00A8485F0A6
:100528001180077DDF7F80120AA87B007AE179F5C8
:100538007805AF4BAE4AAD49AC4812032F8F0A7B02
:10054800807A9679987800AF4BAE4AAD49AC48129C
:10055800032FAC00AD01AE02AF037B407A42790FA6
:10056800780012032F8F0B7B407A42790F7800AF07
:100578004BAE4AAD49AC4812032FAC00AD01AE02F8
:10058800AF037BA07A867901780012032F8F0C7B4A
:10059800A07A8679017800AF4BAE4AAD49AC4812D3
:1005A800032FAC00AD01AE02AF03E47B107A27F94C
:1005B800F812032F8F0DE47B107A27F9F8AF4BAEB2
:1005C8004AAD49AC4812032FAC00AD01AE02AF03EF
:1005D800E47BE87A03F9F812032F8F0EE47BE87ABC
:1005E80003F9F8AF4BAE4AAD49AC4812032FAC0043
:1005F800AD01AE02AF03E47B64FAF9F812032F8F62
:100608000FE47B64FAF9F8AF4BAE4AAD49AC481237
:10061800032FAC00AD01AE02AF03E47B0AFAF9F890
:1006280012032F8F10E47B0AFAF9F8AF4BAE4AADEC
:1006380049AC4812032FAF038F1120000302045B5B
:10064800C200852C0A852D0B852E0C852F0D853033
:0D0658000E85310F85321085331102045BD1
:03000B0002086D7B
:10086D00C0E0C083C082C0D075D000C000C005C03C
:01087D000773
:10087E0012091F05080509E508C3940A4005750805
:0F088E0000D201E509C394324005750900D2007C
:0F089D00D007D005D000D0D0D082D083D0E032A9
:040AB500D2A07F0547
:080AB90000AE071FEE70F922E8
:0F0A9900D2A1120AB5C2A17F05120AB9C2A022CA
:0C0AC100C2A1120AB5D2A17F05020AB939
:100A5C00C2A0A20292A17F05120AB9120AB5C2A0C5
:070A6C00D2A17F05020AB9C7
:080A4300120A997FA012095765
:100A4B00120AB5A2A19202C2A07F05120AB9A20294
:010A5B002278
:02095700AD07EA
:10095900E4FCC2A07F05120AB9ED30E704D2A180F8
:1009690002C2A17F05120AB9D2A0ED25E0FD7F05DB
:09097900120AB90CBC08DBC2A093
:010982002252
:1009F400E4FC120AB5ED25E0FD30A103430501C274
:0C0A0400A07F05120AB90CBC08E8AF0581
:010A100022C3
:0808AC008F4C8B4D8A4E894FE1
:1008B400120A43AF4C120957120A4BE4F551E551A1
:1008C400C39550501AAB4DAA4EA94F8551827583DA
:1008D400001202A4FF120957120A4B055180DF02CD
:0208E4000AC147
:08081E008F4C8B4D8A4E894F6F
:10082600120A43AF4C120957120A4B120AC1120A96
:10083600997FA1120957120A4BE4F551E551C39568
:1008460050501C1209F4AB4DAA4EA94F8551827522
:100856008300EF1202D1C202120A5C055180DDD27A
:0708660002120A5C020AC144
:10000E00EC4D6011E8497017ED33EC3304600DE4EC
:10001E00FCFFFEFD22E933E8330470F80201801282
:10002E00014B58046009E4CC248150062850090283
:10003E00018A284003020187C0E0EB4A7044B98070
:10004E0006D0E0FB020176EF4E701CBD8008EBFF80
:10005E00EAFEE9FD80EBE98DF0A4FEE5F00200F783
:10006E00E9CDF9EAFEEBFFEF89F0A4FCE5F0CE89CD
:10007E00F0A42EFFE435F0CD89F0A42DFEE435F08A
:10008E008067EF4E7005BD80D780C3EF8BF0A4ACB8
:10009E00F0EE8BF0A42CFCE435F0F8EF8AF0A42CF3
:1000AE00E5F038FCE433CB8DF0A42CFCE5F03BF806
:1000BE00EE8AF0A42CFCE5F038F8E433CF89F0A4F6
:1000CE002CFCE5F038CF3400CE89F0A42FFFE5F0FC
:1000DE003EFEE433C98DF0A42EFEE5F039CD8AF054
:1000EE00A42FFFE5F03EFEE43DFD33D0E0FB5007CC
:1000FE000BBB000F02018AEC2CFCEF33FFEE33FE3C
:06010E00ED33FD02016269
:10011400EDD2E7CD33EC3392D524814006E4FFFEE3
:10012400FDFC22FCE4CFCECDCC24E0501174FF8042
:10013400EDC3CC13CCCD13CDCE13CECF13CF0470DF
:07014400F030D5DE0203C11B
:10014B00E9D2E7C933E833F892D5EDD2E7CD33ECFA
:07015B0033FC5002B2D52273
:10016200EC30E7100FBF000C0EBE00080DBD0004FE
:100172000BEB6014A2D5EB13FCED92E7FD2274FFAA
:10018200FCFDFEFF22E480F8A2D574FF13FC7D8003
:03019200E480EF17
:10073A00020408E493A3F8E493A34003F68001F2C9
:10074A0008DFF48029E493A3F85407240CC8C333C0
:10075A00C4540F4420C8834004F456800146F6DF8F
:10076A00E4800B01020408102040809009D0E47E46
:10077A00019360BCA3FF543F30E509541FFEE49384
:10078A00A360010ECF54C025E060A840B8E493A34B
:10079A00FAE493A3F8E493A3C8C582C8CAC583CA76
:1007AA00F0A3C8C582C8CAC583CADFE9DEE780BE2E
:0109F3000003
:10019500E709F608DFFA8046E709F208DFFA803E4C
:1001A50088828C83E709F0A3DFFA8032E309F60839
:1001B500DFFA8078E309F208DFFA807088828C83A1
:1001C500E309F0A3DFFA806489828A83E0A3F60855
:1001D500DFFA805889828A83E0A3F208DFFA804C2F
:1001E50080D280FA80C680D4806980F28033801006
:1001F50080A680EA809A80A880DA80E280CA80336F
:1002050089828A83ECFAE493A3C8C582C8CCC583E6
:10021500CCF0A3C8C582C8CCC583CCDFE9DEE780B6
:100225000D89828A83E493A3F608DFF9ECFAA9F035
:10023500EDFB2289828A83ECFAE0A3C8C582C8CC8B
:10024500C583CCF0A3C8C582C8CCC583CCDFEADEA4
:10025500E880DB89828A83E493A3F208DFF980CC06
:1002650088F0EF60010E4E60C388F0ED2402B404FF
:100275000050B9F582EB2402B4040050AF232345A6
:0602850082239001E573E5
:10028B00BB010689828A83E0225002E722BBFE0271
:09029B00E32289828A83E49322A4
:1002A400BB010CE58229F582E5833AF583E022500F
:1002B40006E92582F8E622BBFE06E92582F8E22259
:0D02C400E58229F582E5833AF583E4932273
:1002D100F8BB010DE58229F582E5833AF583E8F063
:1002E100225006E92582C8F622BBFE05E92582C80F
:0202F100F222F7
:1002F30075F008758200EF2FFFEE33FECD33CDCCC2
:1003030033CCC58233C5829BED9AEC99E582984044
:100313000CF582EE9BFEED9AFDEC99FC0FD5F0D621
:10032300E4CEFBE4CDFAE4CCF9A88222B800C1B94B
:100333000059BA002DEC8BF084CFCECDFCE5F0CB89
:10034300F97818EF2FFFEE33FEED33FDEC33FCEBC2
:1003530033FB10D703994004EB99FB0FD8E5E4F97D
:10036300FA227818EF2FFFEE33FEED33FDEC33FC6A
:10037300C933C910D7059BE99A4007EC9BFCE99A5E
:10038300F90FD8E0E4C9FAE4CCFB2275F010EF2FA3
:10039300FFEE33FEED33FDCC33CCC833C810D707A3
:1003A3009BEC9AE899400AED9BFDEC9AFCE899F8DE
:0E03B3000FD5F0DAE4CDFBE4CCFAE4C8F92271
:0E03C100C3E49FFFE49EFEE49DFDE49CFC224D
:1003CF00E8600FECC313FCED13FDEE13FEEF13FF0C
:0303DF00D8F12230
:1003E200D083D082F8E4937012740193700DA3A3AA
:1003F20093F8740193F5828883E4737402936860BE
:06040200EFA3A3A380DFBD
:00000001FF
