:030000000205A056
:0C05A000787FE4F6D8FD7581200205E7A5
:10078C00C0F9A4B0999282F88090FF407924301976
:08079C00120278001089C1BFB0
:1006FD00080A0A0A0A0A0A0A0A0A011200C100C1F6
:10070D0001C1020116000115FF01140001080001CD
:02071D000900D1
:10000E00438E805389F0758A40758CA2C28DD28C36
:05001E00D2A9D2AF22BF
:10073D00759850438E40538EFE53890F758BC77538
:0B074D008DFEC2ABD28ED2AFD2AC2228
:0D080200E5A0541F4FF5A08D8053A01F22CC
:10077300750A0A750B0A750C0A750D0A750E0A754A
:090783000F0A75100A75110A2213
:1007D1007DFF7F801208027DAF7FA0120802020711
:0107E10073A4
:100670007DFF7FE0120802AF127401A80708800214
:10068000C333D8FCFD7FC0120802AF120512740AF2
:100690002FF8E690078C93FD7FE0120802E512C365
:0806A00094084003E4F5122266
:1004D70075B0F0D2C2D2C4A2C292B6A2C492B7E596
:1004E700B054F0F51964F0600405168003E4F516BE
:1004F700E5166403707BF516751401E51924506041
:100507001124E0601224F0601324707012E4F51ACD
:10051700800D751A018008751A028003751A037514
:10052700B00FC2C2C2C4A2C292B6A2C492B7E5B00B
:10053700540FF51924F9602F24FC601F24FE600F67
:1005470014702EE51A25E025E02407F5158022E52D
:100557001A25E025E02406F5158016E51A25E0257D
:10056700E02405F515800AE51A25E025E02404F5C1
:100577001575B00FC2C2C2C4A2C292B6A2C492B7C6
:10058700E5B0540FF519E514B4010BE519B40F06DE
:08059700E4F514AF15227FFF0B
:01059F002239
:10033600E4F517F5181207D112073D12000E7FC813
:100346001207BB2000030203ECC2001204D7EFF42D
:1003560070030203ECEF24FCB4100040030203EC2C
:1003660090037475F003A4C58325F0C58373020357
:10037600B00203AC0203A80203A40203EC0203ECDE
:100386000203B40203B60203CA0203C40203BE0296
:1003960003BA0203E60203E10203D90203D0E4FD35
:1003A600801E7DFF801A7DAA80167D5580128008EA
:1003B6007DEF80067DBF80027DAF7FA080107DFE31
:1003C6007F80800A7DFD7F8080047DFB7F80120810
:1003D600028013740A2518F518800B75170180061C
:1003E600E4F51712077330016EE517606AC201E47F
:1003F600FF1206D4AB077A007C007D057E00120250
:100406008BAC06AD07EC1201D1E4FBFA797F784399
:1004160012012FE4FBFA79C8784212002612020A6A
:10042600AA06AB077C007D6412029DEF240BF50A39
:100436007C007D64AF03AE0212029D7E007F0ACF70
:10044600CDCFCECCCE12029D8F0BAE02AF037C0079
:100456007D0A12029D8D0C200203020349E51770E6
:1004660003020349C2027F031206D4AB077A007C5B
:10047600007D057E0012028BAC06AD07EC1201D1A1
:10048600E4FBFA797F784312012FE4FBFA79C87806
:100496004212002612020AAA06AB077C007D6412ED
:1004A600029DEF240BF50F7C007D64AF03AE0212B4
:1004B600029D7E007F0ACFCDCFCECCCE12029D8F7D
:1004C600107C007D0AAF03AE0212029D8D1102035D
:0104D60049DC
:03000B0002062CBE
:10062C00C0E0C083C082C0D075D000C000C005C07F
:01063C0007B6
:10063D0012067005080509E508C3940A40057508FA
:10064D0000D200E509B46402D201E509B4C805750C
:04065D000900D202BC
:0F066100D007D005D000D0D0D082D083D0E032E7
:030023000207E2EF
:1007E20030980DC2988599138513993099FDC29955
:0107F20032D4
:04080F00D2A07F05EF
:0808130000AE071FEE70F92290
:0F07F300D2A112080FC2A17F05120813C2A022C3
:0C081B00C2A112080FD2A17F0502081331
:1007A400C2A0A20392A17F0512081312080FC2A0CF
:0707B400D2A17F050208132A
:0A075800AB071207F37F901206A80A
:1007620012080FA2A19203C2A07F05120813A203CE
:010772002264
:0206A800AD079C
:1006AA00E4FCC2A07F05120813ED30E704D2A18052
:1006BA0002C2A17F05120813D2A0ED25E0FD7F0535
:0906CA001208130CBC08DBC2A0ED
:0106D3002204
:10072000E4FC12080FED25E0FD30A103430501C2F2
:0C073000A07F051208130CBC08E8AF0500
:01073C00229A
:1006D400120758AF031206A812076212081B12076A
:1006E400F37F911206A8120762120720AD07D20306
:0806F4001207A412081BAF0558
:0106FC0022DB
:1007BB001207587F401206A8120762AF031206A851
:0607CB0012076202081B88
:10002600EC4D6011E8497017ED33EC3304600DE4D4
:10003600FCFFFEFD22E933E8330470F80202761273
:10004600024158046009E4CC248150062850090274
:10005600028028400302027DC0E0EB4A7044B9806A
:1000660006D0E0FB02026CEF4E701CBD8008EBFF71
:10007600EAFEE9FD80EBE98DF0A4FEE5F002010F52
:10008600E9CDF9EAFEEBFFEF89F0A4FCE5F0CE89B5
:10009600F0A42EFFE435F0CD89F0A42DFEE435F072
:1000A6008067EF4E7005BD80D780C3EF8BF0A4ACA0
:1000B600F0EE8BF0A42CFCE435F0F8EF8AF0A42CDB
:1000C600E5F038FCE433CB8DF0A42CFCE5F03BF8EE
:1000D600EE8AF0A42CFCE5F038F8E433CF89F0A4DE
:1000E6002CFCE5F038CF3400CE89F0A42FFFE5F0E4
:1000F6003EFEE433C98DF0A42EFEE5F039CD8AF03C
:10010600A42FFFE5F03EFEE43DFD33D0E0FB5007B3
:100116000BBB000F020280EC2CFCEF33FFEE33FE2C
:06012600ED33FD0202585A
:10012C00020280EC5D046005E8590470030202765B
:10013C00120241580460F6EC4860F2EC7004FDFECB
:10014C00FF22C860DB2481C85009C39860025006A6
:10015C0002027D9850CAF582E9294B4A7005AB82A0
:10016C0002026C75F0007C1A7880C3EF9BEE9AED5E
:10017C0099400DC3EF9BFFEE9AFEED99FDE842F01E
:10018C00DC23ACF0D0E0FFD0E0FED0E0FDAB822071
:10019C00E7101BEB60BAEC2CFCEF33FFEE33FEEDFB
:1001AC0033FD020258E803F830E705C0F075F000A3
:1001BC00EF2FFFEE33FEED33FD40B830E7C280AADF
:1001CC0075F020800E75F010800575F0087D007EAE
:1001DC00007F003392D530D5031202D3EC3340109C
:1001EC00EF33FFEE33FEED33FDEC33FCD5F0ED22B7
:0E01FC00E5F0247EA2D513CC92E7CDCEFF22F3
:10020A00EDD2E7CD33EC3392D524814006E4FFFEEC
:10021A00FDFC22FCE4CFCECDCC24E0501174FF804B
:10022A00EDC3CC13CCCD13CDCE13CECF13CF0470E8
:07023A00F030D5DE0202D313
:10024100E9D2E7C933E833F892D5EDD2E7CD33EC03
:0702510033FC5002B2D5227C
:10025800EC30E7100FBF000C0EBE00080DBD000407
:100268000BEB6014A2D5EB13FCED92E7FD2274FFB3
:10027800FCFDFEFF22E480F8A2D574FF13FC7D800C
:03028800E480EF20
:1005AC00020336E493A3F8E493A34003F68001F22C
:1005BC0008DFF48029E493A3F85407240CC8C33350
:1005CC00C4540F4420C8834004F456800146F6DF1F
:1005DC00E4800B01020408102040809006FDE47EAC
:1005EC00019360BCA3FF543F30E509541FFEE49314
:1005FC00A360010ECF54C025E060A840B8E493A3DB
:10060C00FAE493A3F8E493A3C8C582C8CAC583CA05
:10061C00F0A3C8C582C8CAC583CADFE9DEE780BEBD
:01071F0000D9
:10028B00EF8DF0A4A8F0CF8CF0A428CE8DF0A42E87
:02029B00FE2241
:10029D00C2D5EC30E709B2D5E4C39DFDE49CFCEE7C
:1002AD0030E715B2D5E4C39FFFE49EFE1202E1C311
:1002BD00E49DFDE49CFC80031202E130D507C3E40C
:0602CD009FFFE49EFE22EB
:0E02D300C3E49FFFE49EFEE49DFDE49CFC223C
:1002E100BC000BBE0029EF8DF084FFADF022E4CC01
:1002F100F875F008EF2FFFEE33FEEC33FCEE9DECCA
:10030100984005FCEE9DFE0FD5F0E9E4CEFD22ED0F
:10031100F8F5F0EE8420D21CFEADF075F008EF2F59
:10032100FFED33FD4007985006D5F0F222C398FD4A
:050331000FD5F0EA22E7
:00000001FF
