:10023900C0F9A4B0999282F88090FF4079243019CE
:05024900120278001014
:1000460008090A0A0A0A0A0A0A0A011100C1000175
:0B00560014000113FF0112000108005C
:040260007DFF7C00A2
:0D026400E5A0541F4FF5A08D8053A01F2270
:1002200075090A750A0A750B0A750C0A750D0A75A7
:090230000E0A750F0A75100A226E
:0F0271007F801202607DAF7FA012026402022024
:10024E00438E0475D74075D6A2438E1043AF04D2A9
:02025E00AF22CD
:1001AA007FE012026074017E00A811088005C33343
:1001BA00CE33CED8F9FDAC067FC0120264AF11056A
:1001CA001174092FF8E690023993FD7C007FE01242
:0D01DA000264E511C394084003E4F511220E
:1000660075B0F0D2C2D2C4A2C292B6A2C492B7E50B
:10007600B054F0F51564F0600405148003E4F5143B
:10008600E51464037073F514751201E515245060C8
:100096001124E0601224F0601324707012E4F51647
:1000A600800D751601800875160280037516037596
:1000B600B00FC2C2C2C4E5B0540FF51524F9602FC3
:1000C60024FC601F24FE600F14702EE51625E02523
:1000D600E02407F5138022E51625E025E02406F541
:1000E600138016E51625E025E02405F513800AE5BC
:1000F6001625E025E02404F51375B00FC2C2C2C46C
:10010600E5B0540FF515E512600BE515B40F06E4DE
:07011600F512AF13227FFF79
:01011D0022BF
:1000030012024E1202713000FDC200120066AE07EA
:10001300EEF460F2EE24FC601F1460111460081407
:1000230070E4E4FDFC800A7DFF7C0080047DAA7CF3
:10003300007F8012026480CE7D557C007F80120297
:030043006480C313
:030063000201E7B0
:1001E700C0E0C083C082C0D075D000C000C004C0CA
:0501F70005C006C00771
:1001FC001201AA0508E508C3940A4005750800D247
:01020C0000F1
:10020D00D007D006D005D004D000D0D0D082D08376
:03021D00D0E032FC
:0300000002011EDC
:0C011E00787FE4F6D8FD758120020165B1
:10012A00020003E493A3F8E493A34003F68001F2E8
:10013A0008DFF48029E493A3F85407240CC8C333D6
:10014A00C4540F4420C8834004F456800146F6DFA5
:10015A00E4800B0102040810204080900046E47EEF
:10016A00019360BCA3FF543F30E509541FFEE4939A
:10017A00A360010ECF54C025E060A840B8E493A361
:10018A00FAE493A3F8E493A3C8C582C8CAC583CA8C
:10019A00F0A3C8C582C8CAC583CADFE9DEE780BE44
:01006100009E
:00000001FF
