:0300000002020AEF
:0C020A00787FE4F6D8FD758120020251D7
:10043400C0F9A4B0999282F88090FF4079243019D1
:08044400120278001089C1BF0B
:1003D900080A0A0A0A0A0A0A0A0A0313173B320117
:1003E9001200C100C1010118000117FF0116000127
:0503F9000800010900ED
:10046200438E805389F0758A40758CA2C28DD28CDE
:05047200D2A9D2AF2267
:0D049B00E5A0541F4FF5A08D8053A01F2237
:10041B00750A0A750B0A750C0A750D0A750E0A75A5
:09042B000F0A75100A75110A226E
:10048A007DFF7F8012049B7DAF7FA012049B020434
:01049A001B46
:10036D007DFF7FE012049BAF127401A80708800285
:10037D00C333D8FCFD7FC012049BAF120512740A63
:10038D002FF8E690043493FD7FE012049BE512C331
:08039D0094084003E4F512226C
:1001410075B0F0D2C2D2C4A2C292B6A2C492B7E52F
:10015100B054F0F51D64F0600405188003E4F5184F
:10016100E5186403707BF518751601E51D245060D0
:100171001124E0601224F0601324707012E4F51E63
:10018100800D751E018008751E028003751E0375A2
:10019100B00FC2C2C2C4A2C292B6A2C492B7E5B0A5
:1001A100540FF51D24F9602F24FC601F24FE600FFD
:1001B10014702EE51E25E025E02407F5178022E5C1
:1001C1001E25E025E02406F5178016E51E25E0250D
:1001D100E02405F517800AE51E25E025E02404F555
:1001E1001775B00FC2C2C2C4A2C292B6A2C492B75E
:1001F100E5B0540FF51DE516B4010BE51DB40F066E
:08020100E4F516AF17227FFFA0
:0102090022D2
:10000E0012048A1204627B007A007913120296207F
:10001E0001030200E1C201120141EFF4700302007C
:10002E00E1EF24FCB4100040030200E1900048759B
:10003E00F003A4C58325F0C58373020084020080FB
:10004E0002007C02007802009302008E02008802F9
:10005E00008A0200B10200A502009F02009B02006E
:10006E00DA0200D40200CE0200C8E4FD804E7DFF0D
:10007E00804A7DAA80467D55804280157DEF801393
:10008E00751C01804EE4F51C12041B80467DBF805A
:10009E00027DAF7FA080390513E513B41803E4F594
:1000AE0013800C1513E513D3940050037513177BAF
:1000BE00007A00791312029680197DFB7F808010E2
:1000CE007DF77F80800A7DEF7F8080047DDF7F80DB
:1000DE0012049B20000302001DE51C700302001D8C
:1000EE00C20012044CE51BC4540FFFF50AE51B5465
:1000FE000FFEF50B750C17E51AC4540FFDF50DE543
:10010E001A540FFCF50E750F17E519C4540FFBF5B5
:10011E0010E519540FFAF511EF75F00AA42EF51328
:10012E00ED75F00AA42CF514EB75F00AA42AF5155A
:03013E0002001D9F
:03000B0002032EBF
:10032E00C0E0C083C082C0D075D000C000C005C080
:01033E0007B7
:10033F0012036D05080509E508C3940A4005750801
:0F034F0000D201E509C394194005750900D200D9
:0F035E00D007D005D000D0D0D082D083D0E032ED
:10047700E4FEC297EF1392A3EFC313FFD2970EBE0A
:0204870008F07B
:010489002250
:0803FF0075F00A84E5F02EFD03
:10040700C29300C29700D29300120477AF0512047B
:0404170077C29322F3
:1003A500E4FDC29300C29700D29300120477E4FFE4
:1003B500C297EDC313FD30A303430580D2970FBF4A
:1003C50008EEC29300C29700D29700C2A300D2A341
:0303D50000AF0571
:0103D8002202
:10029600E4FD7F8E1204071202E8FF75F00A84C49B
:1002A60054F0FEEF7F841203FF900001120301FF5A
:1002B60075F00A84C454F0FEEF7F821203FF9000AB
:1002C60002120301FF75F00A84C454F0FEEF75F0C4
:1002D6000A84E5F02EFD7F801204077D807F8E0262
:0202E60004070B
:10044C007F851203A58F1B7F831203A58F1A7F81D3
:06045C001203A58F192216
:1002160002000EE493A3F8E493A34003F68001F2F0
:1002260008DFF48029E493A3F85407240CC8C333E9
:10023600C4540F4420C8834004F456800146F6DFB8
:10024600E4800B01020408102040809003D9E47E6C
:10025600019360BCA3FF543F30E509541FFEE493AD
:10026600A360010ECF54C025E060A840B8E493A374
:10027600FAE493A3F8E493A3C8C582C8CAC583CA9F
:10028600F0A3C8C582C8CAC583CADFE9DEE780BE57
:0103FE0000FE
:1002E800BB010689828A83E0225002E722BBFE0214
:0902F800E32289828A83E4932247
:10030100BB010CE58229F582E5833AF583E02250B1
:1003110006E92582F8E622BBFE06E92582F8E222FB
:0D032100E58229F582E5833AF583E4932215
:00000001FF
