:0D02E500C0F9A4B0999282F88090FFBFC6C6
:10028800080D0A0A0A0A0A0A0A0A011900011500D1
:10029800C101C1000118000117FF01160002080082
:0402A80000010A0047
:1002AD00438E805389F0758A50758CFBC28DD28C2C
:0502BD00D2A9D2AF221E
:1002C200438E4053890F758B40758DA2C28FD28E9B
:0502D200D2ABD2AF2207
:0D000E00E5A0541F4FF5A08D8053A01F22C8
:0E02D7007DFF7F8012000E7DAF7FA002000E23
:100250007DFF7FE012000EAF157401A80708800231
:10026000C333D8FCFD7FC012000EAF150515740D09
:100270002FF8E69002E593FD7FE012000EE515C32E
:0802800094084003E4F5152287
:10001E0075B0F0D2C2D2C4A2C292B6A2C492B7E553
:10002E00B054F0F51C64F0600405188003E4F51874
:10003E00E5186403707BF518751601E51C245060F5
:10004E001124E0601224F0601324707012E4F51D88
:10005E00800D751D018008751D028003751D0375C9
:10006E00B00FC2C2C2C4A2C292B6A2C492B7E5B0C9
:10007E00540FF51C24F9602F24FC601F24FE600F22
:10008E0014702EE51D25E025E02407F5178022E5E6
:10009E001D25E025E02406F5178016E51D25E02533
:1000AE00E02405F517800AE51D25E025E02404F57A
:1000BE001775B00FC2C2C2C4A2C292B6A2C492B782
:1000CE00E5B0540FF51CE516B4010BE51CB40F0694
:0800DE00E4F516AF17227FFFC5
:0100E60022F7
:10020E00E4F51AF51B1202D71202AD1202C2E5195D
:10021E0075F00A84F513E51975F00A8485F014302B
:10022E0001ECC20112001EAE07EEF460E1EE24F402
:10023E0070DC05190519E519D3940A40D1E4F519B6
:02024E0080CC62
:03000B000201C12E
:0D01C100C0E0C0D075D000C000C005C00770
:1001CE00C3E50995197480F86508984006C2B47D98
:1001DE00FF8004D2B4E4FD7F8012000E0509E5090C
:1001EE0070020508C3940AE5086480948040067581
:0501FE00080075090076
:0B020300D007D005D000D0D0D0E032F2
:03001B000201736C
:10017300C0E0C083C082C0D075D000C000C005C03D
:010183000774
:10018400120250050A050CE50C7002050BE50AC3C2
:10019400940A4005750A00D201C3E50C94F4E50BFA
:0E01A400648094814008750B00750C00D20039
:0F01B200D007D005D000D0D0D082D083D0E0329B
:030000000200E714
:0C00E700787FE4F6D8FD75812002012E20
:1000F30002020EE493A3F8E493A34003F68001F213
:1001030008DFF48029E493A3F85407240CC8C3330D
:10011300C4540F4420C8834004F456800146F6DFDC
:10012300E4800B0102040810204080900288E47EE2
:10013300019360BCA3FF543F30E509541FFEE493D1
:10014300A360010ECF54C025E060A840B8E493A398
:10015300FAE493A3F8E493A3C8C582C8CAC583CAC3
:10016300F0A3C8C582C8CAC583CADFE9DEE780BE7B
:0102AC000051
:00000001FF
