:1002C000C0F9A4B0999282F88090FF407924301947
:0502D00012027800108D
:1002760008090A0A0A0A0A0A0A0A011100C1000143
:0B02860014000113FF0112000108002A
:0402D5007DFF7C002D
:0D02D900E5A0541F4FF5A08D8053A01F22FB
:1002920075090A750A0A750B0A750C0A750D0A7535
:0902A2000E0A750F0A75100A22FC
:0F02E6007F801202D57DAF7FA01202D902029253
:1002AB00438E805389F0758A40758CA2C28DD28C97
:0502BB00D2A9D2AF2220
:100200007FE01202D574017E00A811088005C33377
:10021000CE33CED8F9FDAC067FC01202D9AF11059E
:100220001174092FF8E69002C093FD7C007FE01264
:0D02300002D9E511C394084003E4F5112242
:1000D300C2B2C2B3D2B4D2B5D2C2D2C4A2C292B651
:1000E300A2C492B7E5B054F0FF64F0600405148035
:1000F30003E4F514E51464037056F514751201EF67
:100103002450601124E0601224F0601324707012F4
:10011300E4F515800D7515018008751502800375CA
:100123001503D2B2D2B3C2B4C2B5C2C2C2C4E5B01F
:10013300540C24FC601024FC7016E51525E025E022
:100143002405F513800AE51525E025E02404F513BD
:10015300D2B2D2B3C2B4C2B5C2C2C2C4E5B0540CA7
:10016300FFE5126009BF0C06E4F512AF13227FFF0F
:010173002269
:10000E001202AB1202E63000FDC2001200D3AE07A0
:10001E00EEF460F2EE24FCB4100050EA9000387555
:10002E00F003A4C58325F0C5837302007702007127
:10003E0002006C02006802009102008C020087022E
:10004E0000820200A90200A302009D020097020096
:10005E00CA0200C10200B80200AF7DFF8007E4FDB6
:10006E00FC800A7DAA7C0080047D557C007F801276
:10007E0002D98092E4F50C808DE4F50B8088E4F5CE
:10008E000A8083E4F509020014E4F510020014E47A
:10009E00F50F020014E4F50E020014E4F50D020053
:1000AE0014750F0A75100A020014750D0A750E0AE2
:1000BE00020014750B0A750C0A02001475090A75F4
:0500CE000A0A02001403
:03000B0002023DB1
:10023D00C0E0C083C082C0D075D000C000C004C073
:05024D0005C006C0071A
:100252001202000508E508C3940A4005750800D299
:01026200009B
:10026300D007D006D005D004D000D0D0D082D08320
:03027300D0E032A6
:0300000002017486
:0C017400787FE4F6D8FD7581200201BB05
:1001800002000EE493A3F8E493A34003F68001F287
:1001900008DFF48029E493A3F85407240CC8C33380
:1001A000C4540F4420C8834004F456800146F6DF4F
:1001B000E4800B0102040810204080900276E47E67
:1001C000019360BCA3FF543F30E509541FFEE49344
:1001D000A360010ECF54C025E060A840B8E493A30B
:1001E000FAE493A3F8E493A3C8C582C8CAC583CA36
:1001F000F0A3C8C582C8CAC583CADFE9DEE780BEEE
:01029100006C
:00000001FF
