:0B036900C0F9A4B0999282F88090FFC8
:10030600080B0A0A0A0A0A0A0A0A011300C101C1ED
:10031600000116000115FF01140001080002090082
:0103260000D6
:040003007DFF7C0001
:0D000700E5A0541F4FF5A08D8053A01F22CF
:10032800750B0A750C0A750D0A750E0A750F0A7594
:09033800100A75110A75120A225F
:0F035A007F801200037DAF7FA0120007020328EF
:1002C9007FE012000374017E00A813088005C33380
:1002D900CE33CED8F9FDAC067FC0120007AF1305A7
:1002E90013740B2FF8E690036993FD7C007FE012ED
:0D02F9000007E513C394084003E4F5132249
:1000DC0075B0F0D2C2D2C4A2C292B6A2C492B7E595
:1000EC00B054F0F51864F0600405168003E4F516BE
:1000FC00E51664037073F516751401E51824506049
:10010C001124E0601224F0601324707012E4F519CD
:10011C00800D751901800875190280037519037516
:10012C00B00FC2C2C2C4E5B0540FF51824F9602F49
:10013C0024FC601F24FE600F14702EE51925E025A9
:10014C00E02407F5158022E51925E025E02406F5C5
:10015C00158016E51925E025E02405F515800AE53E
:10016C001925E025E02404F51575B00FC2C2C2C4F0
:10017C00E5B0540FF518E514600BE518B40F06E460
:07018C00F514AF15227FFFFF
:010193002249
:10034100438E40438905758B40758DA2C28FD28E35
:09035100D28CD2A9D2ABD2AF22AA
:10001E00E4F517FBFA12035A120341300120C20114
:10002E001200DCEFF46017EF24FC600924FD700E63
:10003E0063170180097D557C007F80120007300018
:10004E0019C200C28CAF8CEFFEAD8A7C00E42DFB92
:10005E00EC3EFAE4F58CF58AD28C3001BEE51760E1
:10006E00BAC2017C277D10AF03AE021202208F0BA5
:10007E007C277D10AF03AE021202207E037FE8CFF5
:10008E00CDCFCECCCE1202208F0C7C037DE8AF03F9
:10009E00AE021202207E007F64CFCDCFCECCCE1228
:1000AE0002208F0D7C007D64AF03AE021202207E13
:1000BE00007F0ACFCDCFCECCCE1202208F0E7C0089
:0E00CE007D0AAF03AE021202208D0F02002940
:03001B0002027569
:10027500C0E0C083C082C0D075D000C000C004C03B
:0502850005C006C007E2
:10028A001202C90508050AE50A70020509E508C34C
:10029A00940A4005750800D201C3E50A94F4E509F9
:0C02AA0094014008750900750A00D2009C
:1002B600D007D006D005D004D000D0D0D082D083CD
:0302C600D0E03253
:0300000002019466
:0C019400787FE4F6D8FD7581200201DBC5
:10022000BC000BBE0029EF8DF084FFADF022E4CCC2
:10023000F875F008EF2FFFEE33FEEC33FCEE9DEC8B
:10024000984005FCEE9DFE0FD5F0E9E4CEFD22EDD1
:10025000F8F5F0EE8420D21CFEADF075F008EF2F1B
:10026000FFED33FD4007985006D5F0F222C398FD0C
:050270000FD5F0EA22A9
:1001A00002001EE493A3F8E493A34003F68001F257
:1001B00008DFF48029E493A3F85407240CC8C33360
:1001C000C4540F4420C8834004F456800146F6DF2F
:1001D000E4800B0102040810204080900306E47EB6
:1001E000019360BCA3FF543F30E509541FFEE49324
:1001F000A360010ECF54C025E060A840B8E493A3EB
:10020000FAE493A3F8E493A3C8C582C8CAC583CA15
:10021000F0A3C8C582C8CAC583CADFE9DEE780BECD
:0103270000D5
:00000001FF
