:1002F300C0F9A4B0999282F88090FF407924301914
:05030300120278001059
:1002B80008090A0A0A0A0A0A0A0A011100C1000101
:1002C80016000115FF0114000113000112000108B6
:0102D8000025
:040308007DFF7C00F9
:0D030C00E5A0541F4FF5A08D8053A01F22C7
:1002DA0075090A750A0A750B0A750C0A750D0A75ED
:0902EA000E0A750F0A75100A22B4
:0F0319007F801203087DAF7FA012030C0202DA6F
:10000300438E4053890F758B40758DA2C28FD28E5C
:05001300D2ABD2AF22C8
:10021C007FE012030874017E00A811088005C33327
:10022C00CE33CED8F9FDAC067FC012030CAF11054E
:10023C001174092FF8E69002F393FD7C007FE01215
:0D024C00030CE511C394084003E4F51122F2
:10001E0075B0F0D2C2D2C4A2C292B6A2C492B7E553
:10002E00B054F0F517E5131470030200C904600311
:10003E00020103E51764F0600405168003E4F5166B
:10004E00E51664036003020103F516751401E51746
:10005E002450601124E0601224F06013247070129A
:10006E00E4F518800D751801800875180280037567
:10007E00180375B00FC2C2C2C4E5B0540FF51724F1
:10008E00F9602924FC601B24FE600D147067E518CE
:10009E0025E025E02407801CE51825E025E0240650
:1000AE008012E51825E025E024058008E51825E0F6
:1000BE0025E02404F515751301803A75B00FC2C200
:1000CE00C2C4E5B0540FF517B40F0DE4F513E516E1
:1000DE00D394195003AF1522E516D3941950040585
:1000EE001680020512E512C3940A4009E4F512E5E2
:0700FE00152414FF227FFF0F
:0101050022D7
:10019200793212000312031930006DC20012001EE0
:1001A200EFF46064EF12029202030802000901E117
:1001B2000C01DC0D01D70E01D20F02091C02061D33
:1001C20001FB2001F62101EB2201E6230000020AD5
:1001D2007509088033E4FDFC8013750F08802975CA
:1001E2000F0A8024750A08801F7DFF7C007F801221
:1001F200030C8014751008800F75100A800A09809C
:100202000719800409800119E975F00A84F50DE9DE
:0A02120075F00A8485F00E02019ACF
:03001B0002025985
:10025900C0E0C083C082C0D075D000C000C004C057
:0502690005C006C007FE
:10026E0012021C0508E508C3940A4005750800D261
:01027E00007F
:10027F00D007D006D005D004D000D0D0D082D08304
:03028F00D0E0328A
:03000000020106F4
:0C010600787FE4F6D8FD75812002014DE1
:10029200D083D082F8E4937012740193700DA3A3FB
:1002A20093F8740193F5828883E47374029368600F
:0602B200EFA3A3A380DF0F
:10011200020192E493A3F8E493A34003F68001F270
:1001220008DFF48029E493A3F85407240CC8C333EE
:10013200C4540F4420C8834004F456800146F6DFBD
:10014200E4800B01020408102040809002B8E47E93
:10015200019360BCA3FF543F30E509541FFEE493B2
:10016200A360010ECF54C025E060A840B8E493A379
:10017200FAE493A3F8E493A3C8C582C8CAC583CAA4
:10018200F0A3C8C582C8CAC583CADFE9DEE780BE5C
:0102D9000024
:00000001FF
