:1001F300C0F9A4B0999282F88090FF407924301915
:0502030012027800105A
:1001A90008090A0A0A0A0A0A0A0A011100C1000111
:0B01B90014000113FF011200010800F8
:040208007DFF7C00FA
:0D020C00E5A0541F4FF5A08D8053A01F22C8
:1001C50075090A750A0A750B0A750C0A750D0A7503
:0901D5000E0A750F0A75100A22CA
:0F0219007F801202087DAF7FA012020C0201C588
:1001DE00438E805389F0758A40758CA2C28DD28C65
:0501EE00D2A9D2AF22EE
:100133007FE012020874017E00A811088005C33312
:10014300CE33CED8F9FDAC067FC012020CAF110539
:100153001174092FF8E69001F393FD7C007FE01200
:0D016300020CE511C394084003E4F51122DD
:10009A0075B00FE5B0540FFF640F600405148003B8
:1000AA00E4F514E514B40328E4F514751201EF24F9
:1000BA00F9601A24FC601124FE600814701275138A
:1000CA0007800D75130680087513058003751304E0
:1000DA0075B00FE5B0540FFFE5126009BF0F06E4D3
:0700EA00F512AF13227FFFA6
:0100F10022EC
:1000F2001201DE1202193000FDC20012009AAE0790
:10010200EEF460F2EE24FC601D14600F146007141C
:1001120070E47DFF8007E4FDFC80047DAA7C007F03
:100122008012020C80D07D557C007F8012020C80F0
:01013200C507
:03000B000201707F
:10017000C0E0C083C082C0D075D000C000C004C041
:0501800005C006C007E8
:100185001201330508E508C3940A4005750800D235
:010195000069
:10019600D007D006D005D004D000D0D0D082D083EE
:0301A600D0E03274
:0300000002000EED
:0C000E00787FE4F6D8FD758120020055D3
:10001A000200F2E493A3F8E493A34003F68001F20A
:10002A0008DFF48029E493A3F85407240CC8C333E7
:10003A00C4540F4420C8834004F456800146F6DFB6
:10004A00E4800B01020408102040809001A9E47E9C
:10005A00019360BCA3FF543F30E509541FFEE493AB
:10006A00A360010ECF54C025E060A840B8E493A372
:10007A00FAE493A3F8E493A3C8C582C8CAC583CA9D
:10008A00F0A3C8C582C8CAC583CADFE9DEE780BE55
:0101C400003A
:00000001FF
